{
  "contracts/AssetReceiverFactory.sol": {
    "AssetReceiverFactory": {
      "abi": [
        {
          "inputs": [],
          "stateMutability": "nonpayable",
          "type": "constructor"
        },
        {
          "anonymous": false,
          "inputs": [
            {
              "indexed": true,
              "internalType": "address",
              "name": "assetReceiverAddress",
              "type": "address"
            },
            {
              "indexed": true,
              "internalType": "address",
              "name": "owner",
              "type": "address"
            },
            {
              "indexed": false,
              "internalType": "address",
              "name": "token",
              "type": "address"
            },
            {
              "indexed": false,
              "internalType": "uint256",
              "name": "chainId",
              "type": "uint256"
            }
          ],
          "name": "AssetReceiverDeployed",
          "type": "event"
        },
        {
          "inputs": [
            {
              "internalType": "bytes32",
              "name": "_salt",
              "type": "bytes32"
            },
            {
              "internalType": "address",
              "name": "token",
              "type": "address"
            },
            {
              "internalType": "uint256",
              "name": "chainId",
              "type": "uint256"
            }
          ],
          "name": "deploy",
          "outputs": [
            {
              "internalType": "address",
              "name": "",
              "type": "address"
            }
          ],
          "stateMutability": "nonpayable",
          "type": "function"
        },
        {
          "inputs": [
            {
              "internalType": "address",
              "name": "user",
              "type": "address"
            }
          ],
          "name": "getBytecode",
          "outputs": [
            {
              "internalType": "bytes",
              "name": "",
              "type": "bytes"
            }
          ],
          "stateMutability": "pure",
          "type": "function"
        },
        {
          "inputs": [],
          "name": "owner",
          "outputs": [
            {
              "internalType": "address payable",
              "name": "",
              "type": "address"
            }
          ],
          "stateMutability": "view",
          "type": "function"
        }
      ],
      "evm": {
        "bytecode": {
          "linkReferences": {},
          "object": "608060405234801561001057600080fd5b50336000806101000a81548173ffffffffffffffffffffffffffffffffffffffff021916908373ffffffffffffffffffffffffffffffffffffffff1602179055506113b0806100606000396000f3fe608060405234801561001057600080fd5b50600436106100415760003560e01c80630c6008af146100465780638da5cb5b14610076578063e6f5e37614610094575b600080fd5b610060600480360381019061005b91906102d2565b6100c4565b60405161006d919061038f565b60405180910390f35b61007e610137565b60405161008b91906103d2565b60405180910390f35b6100ae60048036038101906100a99190610459565b61015b565b6040516100bb91906104bb565b60405180910390f35b60606000604051806020016100d890610262565b6020820181038252601f19601f820116604052509050808360405160200161010091906104bb565b604051602081830303815290604052604051602001610120929190610512565b604051602081830303815290604052915050919050565b60008054906101000a900473ffffffffffffffffffffffffffffffffffffffff1681565b6000806000610169336100c4565b9050858151602083016000f59150813b61018257600080fd5b8173ffffffffffffffffffffffffffffffffffffffff1663cd6dc68786866040518363ffffffff1660e01b81526004016101bd929190610545565b600060405180830381600087803b1580156101d757600080fd5b505af11580156101eb573d6000803e3d6000fd5b505050503373ffffffffffffffffffffffffffffffffffffffff168273ffffffffffffffffffffffffffffffffffffffff167f6f5c3fd72a76cee4eae5b19c7d170e5ffb7f132ef0f26296a1f46ec2bb3faaf2878760405161024e929190610545565b60405180910390a381925050509392505050565b610e0c8061056f83390190565b600080fd5b600073ffffffffffffffffffffffffffffffffffffffff82169050919050565b600061029f82610274565b9050919050565b6102af81610294565b81146102ba57600080fd5b50565b6000813590506102cc816102a6565b92915050565b6000602082840312156102e8576102e761026f565b5b60006102f6848285016102bd565b91505092915050565b600081519050919050565b600082825260208201905092915050565b60005b8381101561033957808201518184015260208101905061031e565b60008484015250505050565b6000601f19601f8301169050919050565b6000610361826102ff565b61036b818561030a565b935061037b81856020860161031b565b61038481610345565b840191505092915050565b600060208201905081810360008301526103a98184610356565b905092915050565b60006103bc82610274565b9050919050565b6103cc816103b1565b82525050565b60006020820190506103e760008301846103c3565b92915050565b6000819050919050565b610400816103ed565b811461040b57600080fd5b50565b60008135905061041d816103f7565b92915050565b6000819050919050565b61043681610423565b811461044157600080fd5b50565b6000813590506104538161042d565b92915050565b6000806000606084860312156104725761047161026f565b5b60006104808682870161040e565b9350506020610491868287016102bd565b92505060406104a286828701610444565b9150509250925092565b6104b581610294565b82525050565b60006020820190506104d060008301846104ac565b92915050565b600081905092915050565b60006104ec826102ff565b6104f681856104d6565b935061050681856020860161031b565b80840191505092915050565b600061051e82856104e1565b915061052a82846104e1565b91508190509392505050565b61053f81610423565b82525050565b600060408201905061055a60008301856104ac565b6105676020830184610536565b939250505056fe608060405234801561001057600080fd5b50604051610e0c380380610e0c8339818101604052810190610032919061011c565b336000806101000a81548173ffffffffffffffffffffffffffffffffffffffff021916908373ffffffffffffffffffffffffffffffffffffffff16021790555080600160006101000a81548173ffffffffffffffffffffffffffffffffffffffff021916908373ffffffffffffffffffffffffffffffffffffffff16021790555050610149565b600080fd5b600073ffffffffffffffffffffffffffffffffffffffff82169050919050565b60006100e9826100be565b9050919050565b6100f9816100de565b811461010457600080fd5b50565b600081519050610116816100f0565b92915050565b600060208284031215610132576101316100b9565b5b600061014084828501610107565b91505092915050565b610cb4806101586000396000f3fe6080604052600436106100745760003560e01c8063947fe8121161004e578063947fe812146100f85780639a8a059214610121578063cd6dc6871461014c578063fc0c546a1461017557610075565b806302d05d3f14610077578063158ef93e146100a25780638da5cb5b146100cd57610075565b5b005b34801561008357600080fd5b5061008c6101a0565b6040516100999190610534565b60405180910390f35b3480156100ae57600080fd5b506100b76101c6565b6040516100c4919061056a565b60405180910390f35b3480156100d957600080fd5b506100e26101d9565b6040516100ef9190610534565b60405180910390f35b34801561010457600080fd5b5061011f600480360381019061011a9190610884565b6101fd565b005b34801561012d57600080fd5b50610136610382565b604051610143919061093f565b60405180910390f35b34801561015857600080fd5b50610173600480360381019061016e919061095a565b610388565b005b34801561018157600080fd5b5061018a6104cd565b60405161019791906109a9565b60405180910390f35b600160009054906101000a900473ffffffffffffffffffffffffffffffffffffffff1681565b600460009054906101000a900460ff1681565b60008054906101000a900473ffffffffffffffffffffffffffffffffffffffff1681565b60005b845181101561037b574782828151811061021d5761021c6109c4565b5b60200260200101511115610266576040517f08c379a000000000000000000000000000000000000000000000000000000000815260040161025d90610a50565b60405180910390fd5b600085828151811061027b5761027a6109c4565b5b602002602001015173ffffffffffffffffffffffffffffffffffffffff168383815181106102ac576102ab6109c4565b5b60200260200101518686858181106102c7576102c66109c4565b5b90506020028101906102d99190610a7f565b6040516102e7929190610b21565b60006040518083038185875af1925050503d8060008114610324576040519150601f19603f3d011682016040523d82523d6000602084013e610329565b606091505b505090508061036d576040517f08c379a000000000000000000000000000000000000000000000000000000000815260040161036490610b86565b60405180910390fd5b508080600101915050610200565b5050505050565b60035481565b60008054906101000a900473ffffffffffffffffffffffffffffffffffffffff1673ffffffffffffffffffffffffffffffffffffffff163373ffffffffffffffffffffffffffffffffffffffff1614610416576040517f08c379a000000000000000000000000000000000000000000000000000000000815260040161040d90610bf2565b60405180910390fd5b600460009054906101000a900460ff1615610466576040517f08c379a000000000000000000000000000000000000000000000000000000000815260040161045d90610c5e565b60405180910390fd5b81600260006101000a81548173ffffffffffffffffffffffffffffffffffffffff021916908373ffffffffffffffffffffffffffffffffffffffff160217905550806003819055506001600460006101000a81548160ff0219169083151502179055505050565b600260009054906101000a900473ffffffffffffffffffffffffffffffffffffffff1681565b600073ffffffffffffffffffffffffffffffffffffffff82169050919050565b600061051e826104f3565b9050919050565b61052e81610513565b82525050565b60006020820190506105496000830184610525565b92915050565b60008115159050919050565b6105648161054f565b82525050565b600060208201905061057f600083018461055b565b92915050565b6000604051905090565b600080fd5b600080fd5b600080fd5b6000601f19601f8301169050919050565b7f4e487b7100000000000000000000000000000000000000000000000000000000600052604160045260246000fd5b6105e78261059e565b810181811067ffffffffffffffff82111715610606576106056105af565b5b80604052505050565b6000610619610585565b905061062582826105de565b919050565b600067ffffffffffffffff821115610645576106446105af565b5b602082029050602081019050919050565b600080fd5b6000610666826104f3565b9050919050565b6106768161065b565b811461068157600080fd5b50565b6000813590506106938161066d565b92915050565b60006106ac6106a78461062a565b61060f565b905080838252602082019050602084028301858111156106cf576106ce610656565b5b835b818110156106f857806106e48882610684565b8452602084019350506020810190506106d1565b5050509392505050565b600082601f83011261071757610716610599565b5b8135610727848260208601610699565b91505092915050565b600080fd5b60008083601f84011261074b5761074a610599565b5b8235905067ffffffffffffffff81111561076857610767610730565b5b60208301915083602082028301111561078457610783610656565b5b9250929050565b600067ffffffffffffffff8211156107a6576107a56105af565b5b602082029050602081019050919050565b6000819050919050565b6107ca816107b7565b81146107d557600080fd5b50565b6000813590506107e7816107c1565b92915050565b60006108006107fb8461078b565b61060f565b9050808382526020820190506020840283018581111561082357610822610656565b5b835b8181101561084c578061083888826107d8565b845260208401935050602081019050610825565b5050509392505050565b600082601f83011261086b5761086a610599565b5b813561087b8482602086016107ed565b91505092915050565b6000806000806060858703121561089e5761089d61058f565b5b600085013567ffffffffffffffff8111156108bc576108bb610594565b5b6108c887828801610702565b945050602085013567ffffffffffffffff8111156108e9576108e8610594565b5b6108f587828801610735565b9350935050604085013567ffffffffffffffff81111561091857610917610594565b5b61092487828801610856565b91505092959194509250565b610939816107b7565b82525050565b60006020820190506109546000830184610930565b92915050565b600080604083850312156109715761097061058f565b5b600061097f85828601610684565b9250506020610990858286016107d8565b9150509250929050565b6109a38161065b565b82525050565b60006020820190506109be600083018461099a565b92915050565b7f4e487b7100000000000000000000000000000000000000000000000000000000600052603260045260246000fd5b600082825260208201905092915050565b7f4e6f7420656e6f7567682062616c616e63650000000000000000000000000000600082015250565b6000610a3a6012836109f3565b9150610a4582610a04565b602082019050919050565b60006020820190508181036000830152610a6981610a2d565b9050919050565b600080fd5b600080fd5b600080fd5b60008083356001602003843603038112610a9c57610a9b610a70565b5b80840192508235915067ffffffffffffffff821115610abe57610abd610a75565b5b602083019250600182023603831315610ada57610ad9610a7a565b5b509250929050565b600081905092915050565b82818337600083830152505050565b6000610b088385610ae2565b9350610b15838584610aed565b82840190509392505050565b6000610b2e828486610afc565b91508190509392505050565b7f4661696c656420746f2065786563757465207377617000000000000000000000600082015250565b6000610b706016836109f3565b9150610b7b82610b3a565b602082019050919050565b60006020820190508181036000830152610b9f81610b63565b9050919050565b7f4e6f7420746865206f776e657200000000000000000000000000000000000000600082015250565b6000610bdc600d836109f3565b9150610be782610ba6565b602082019050919050565b60006020820190508181036000830152610c0b81610bcf565b9050919050565b7f416c726561647920696e697469616c697a656400000000000000000000000000600082015250565b6000610c486013836109f3565b9150610c5382610c12565b602082019050919050565b60006020820190508181036000830152610c7781610c3b565b905091905056fea26469706673582212204249d88ce8626b5c968bc3ace0cd5ec97f132883c00f18b5e5fbca4d35d975b364736f6c63430008180033a264697066735822122079b238bd0d4849e6347477de320659758a0d4b05db6aac7382d2b56c99e4225264736f6c63430008180033",
          "opcodes": "PUSH1 0x80 PUSH1 0x40 MSTORE CALLVALUE DUP1 ISZERO PUSH2 0x10 JUMPI PUSH1 0x0 DUP1 REVERT JUMPDEST POP CALLER PUSH1 0x0 DUP1 PUSH2 0x100 EXP DUP2 SLOAD DUP2 PUSH20 0xFFFFFFFFFFFFFFFFFFFFFFFFFFFFFFFFFFFFFFFF MUL NOT AND SWAP1 DUP4 PUSH20 0xFFFFFFFFFFFFFFFFFFFFFFFFFFFFFFFFFFFFFFFF AND MUL OR SWAP1 SSTORE POP PUSH2 0x13B0 DUP1 PUSH2 0x60 PUSH1 0x0 CODECOPY PUSH1 0x0 RETURN INVALID PUSH1 0x80 PUSH1 0x40 MSTORE CALLVALUE DUP1 ISZERO PUSH2 0x10 JUMPI PUSH1 0x0 DUP1 REVERT JUMPDEST POP PUSH1 0x4 CALLDATASIZE LT PUSH2 0x41 JUMPI PUSH1 0x0 CALLDATALOAD PUSH1 0xE0 SHR DUP1 PUSH4 0xC6008AF EQ PUSH2 0x46 JUMPI DUP1 PUSH4 0x8DA5CB5B EQ PUSH2 0x76 JUMPI DUP1 PUSH4 0xE6F5E376 EQ PUSH2 0x94 JUMPI JUMPDEST PUSH1 0x0 DUP1 REVERT JUMPDEST PUSH2 0x60 PUSH1 0x4 DUP1 CALLDATASIZE SUB DUP2 ADD SWAP1 PUSH2 0x5B SWAP2 SWAP1 PUSH2 0x2D2 JUMP JUMPDEST PUSH2 0xC4 JUMP JUMPDEST PUSH1 0x40 MLOAD PUSH2 0x6D SWAP2 SWAP1 PUSH2 0x38F JUMP JUMPDEST PUSH1 0x40 MLOAD DUP1 SWAP2 SUB SWAP1 RETURN JUMPDEST PUSH2 0x7E PUSH2 0x137 JUMP JUMPDEST PUSH1 0x40 MLOAD PUSH2 0x8B SWAP2 SWAP1 PUSH2 0x3D2 JUMP JUMPDEST PUSH1 0x40 MLOAD DUP1 SWAP2 SUB SWAP1 RETURN JUMPDEST PUSH2 0xAE PUSH1 0x4 DUP1 CALLDATASIZE SUB DUP2 ADD SWAP1 PUSH2 0xA9 SWAP2 SWAP1 PUSH2 0x459 JUMP JUMPDEST PUSH2 0x15B JUMP JUMPDEST PUSH1 0x40 MLOAD PUSH2 0xBB SWAP2 SWAP1 PUSH2 0x4BB JUMP JUMPDEST PUSH1 0x40 MLOAD DUP1 SWAP2 SUB SWAP1 RETURN JUMPDEST PUSH1 0x60 PUSH1 0x0 PUSH1 0x40 MLOAD DUP1 PUSH1 0x20 ADD PUSH2 0xD8 SWAP1 PUSH2 0x262 JUMP JUMPDEST PUSH1 0x20 DUP3 ADD DUP2 SUB DUP3 MSTORE PUSH1 0x1F NOT PUSH1 0x1F DUP3 ADD AND PUSH1 0x40 MSTORE POP SWAP1 POP DUP1 DUP4 PUSH1 0x40 MLOAD PUSH1 0x20 ADD PUSH2 0x100 SWAP2 SWAP1 PUSH2 0x4BB JUMP JUMPDEST PUSH1 0x40 MLOAD PUSH1 0x20 DUP2 DUP4 SUB SUB DUP2 MSTORE SWAP1 PUSH1 0x40 MSTORE PUSH1 0x40 MLOAD PUSH1 0x20 ADD PUSH2 0x120 SWAP3 SWAP2 SWAP1 PUSH2 0x512 JUMP JUMPDEST PUSH1 0x40 MLOAD PUSH1 0x20 DUP2 DUP4 SUB SUB DUP2 MSTORE SWAP1 PUSH1 0x40 MSTORE SWAP2 POP POP SWAP2 SWAP1 POP JUMP JUMPDEST PUSH1 0x0 DUP1 SLOAD SWAP1 PUSH2 0x100 EXP SWAP1 DIV PUSH20 0xFFFFFFFFFFFFFFFFFFFFFFFFFFFFFFFFFFFFFFFF AND DUP2 JUMP JUMPDEST PUSH1 0x0 DUP1 PUSH1 0x0 PUSH2 0x169 CALLER PUSH2 0xC4 JUMP JUMPDEST SWAP1 POP DUP6 DUP2 MLOAD PUSH1 0x20 DUP4 ADD PUSH1 0x0 CREATE2 SWAP2 POP DUP2 EXTCODESIZE PUSH2 0x182 JUMPI PUSH1 0x0 DUP1 REVERT JUMPDEST DUP2 PUSH20 0xFFFFFFFFFFFFFFFFFFFFFFFFFFFFFFFFFFFFFFFF AND PUSH4 0xCD6DC687 DUP7 DUP7 PUSH1 0x40 MLOAD DUP4 PUSH4 0xFFFFFFFF AND PUSH1 0xE0 SHL DUP2 MSTORE PUSH1 0x4 ADD PUSH2 0x1BD SWAP3 SWAP2 SWAP1 PUSH2 0x545 JUMP JUMPDEST PUSH1 0x0 PUSH1 0x40 MLOAD DUP1 DUP4 SUB DUP2 PUSH1 0x0 DUP8 DUP1 EXTCODESIZE ISZERO DUP1 ISZERO PUSH2 0x1D7 JUMPI PUSH1 0x0 DUP1 REVERT JUMPDEST POP GAS CALL ISZERO DUP1 ISZERO PUSH2 0x1EB JUMPI RETURNDATASIZE PUSH1 0x0 DUP1 RETURNDATACOPY RETURNDATASIZE PUSH1 0x0 REVERT JUMPDEST POP POP POP POP CALLER PUSH20 0xFFFFFFFFFFFFFFFFFFFFFFFFFFFFFFFFFFFFFFFF AND DUP3 PUSH20 0xFFFFFFFFFFFFFFFFFFFFFFFFFFFFFFFFFFFFFFFF AND PUSH32 0x6F5C3FD72A76CEE4EAE5B19C7D170E5FFB7F132EF0F26296A1F46EC2BB3FAAF2 DUP8 DUP8 PUSH1 0x40 MLOAD PUSH2 0x24E SWAP3 SWAP2 SWAP1 PUSH2 0x545 JUMP JUMPDEST PUSH1 0x40 MLOAD DUP1 SWAP2 SUB SWAP1 LOG3 DUP2 SWAP3 POP POP POP SWAP4 SWAP3 POP POP POP JUMP JUMPDEST PUSH2 0xE0C DUP1 PUSH2 0x56F DUP4 CODECOPY ADD SWAP1 JUMP JUMPDEST PUSH1 0x0 DUP1 REVERT JUMPDEST PUSH1 0x0 PUSH20 0xFFFFFFFFFFFFFFFFFFFFFFFFFFFFFFFFFFFFFFFF DUP3 AND SWAP1 POP SWAP2 SWAP1 POP JUMP JUMPDEST PUSH1 0x0 PUSH2 0x29F DUP3 PUSH2 0x274 JUMP JUMPDEST SWAP1 POP SWAP2 SWAP1 POP JUMP JUMPDEST PUSH2 0x2AF DUP2 PUSH2 0x294 JUMP JUMPDEST DUP2 EQ PUSH2 0x2BA JUMPI PUSH1 0x0 DUP1 REVERT JUMPDEST POP JUMP JUMPDEST PUSH1 0x0 DUP2 CALLDATALOAD SWAP1 POP PUSH2 0x2CC DUP2 PUSH2 0x2A6 JUMP JUMPDEST SWAP3 SWAP2 POP POP JUMP JUMPDEST PUSH1 0x0 PUSH1 0x20 DUP3 DUP5 SUB SLT ISZERO PUSH2 0x2E8 JUMPI PUSH2 0x2E7 PUSH2 0x26F JUMP JUMPDEST JUMPDEST PUSH1 0x0 PUSH2 0x2F6 DUP5 DUP3 DUP6 ADD PUSH2 0x2BD JUMP JUMPDEST SWAP2 POP POP SWAP3 SWAP2 POP POP JUMP JUMPDEST PUSH1 0x0 DUP2 MLOAD SWAP1 POP SWAP2 SWAP1 POP JUMP JUMPDEST PUSH1 0x0 DUP3 DUP3 MSTORE PUSH1 0x20 DUP3 ADD SWAP1 POP SWAP3 SWAP2 POP POP JUMP JUMPDEST PUSH1 0x0 JUMPDEST DUP4 DUP2 LT ISZERO PUSH2 0x339 JUMPI DUP1 DUP3 ADD MLOAD DUP2 DUP5 ADD MSTORE PUSH1 0x20 DUP2 ADD SWAP1 POP PUSH2 0x31E JUMP JUMPDEST PUSH1 0x0 DUP5 DUP5 ADD MSTORE POP POP POP POP JUMP JUMPDEST PUSH1 0x0 PUSH1 0x1F NOT PUSH1 0x1F DUP4 ADD AND SWAP1 POP SWAP2 SWAP1 POP JUMP JUMPDEST PUSH1 0x0 PUSH2 0x361 DUP3 PUSH2 0x2FF JUMP JUMPDEST PUSH2 0x36B DUP2 DUP6 PUSH2 0x30A JUMP JUMPDEST SWAP4 POP PUSH2 0x37B DUP2 DUP6 PUSH1 0x20 DUP7 ADD PUSH2 0x31B JUMP JUMPDEST PUSH2 0x384 DUP2 PUSH2 0x345 JUMP JUMPDEST DUP5 ADD SWAP2 POP POP SWAP3 SWAP2 POP POP JUMP JUMPDEST PUSH1 0x0 PUSH1 0x20 DUP3 ADD SWAP1 POP DUP2 DUP2 SUB PUSH1 0x0 DUP4 ADD MSTORE PUSH2 0x3A9 DUP2 DUP5 PUSH2 0x356 JUMP JUMPDEST SWAP1 POP SWAP3 SWAP2 POP POP JUMP JUMPDEST PUSH1 0x0 PUSH2 0x3BC DUP3 PUSH2 0x274 JUMP JUMPDEST SWAP1 POP SWAP2 SWAP1 POP JUMP JUMPDEST PUSH2 0x3CC DUP2 PUSH2 0x3B1 JUMP JUMPDEST DUP3 MSTORE POP POP JUMP JUMPDEST PUSH1 0x0 PUSH1 0x20 DUP3 ADD SWAP1 POP PUSH2 0x3E7 PUSH1 0x0 DUP4 ADD DUP5 PUSH2 0x3C3 JUMP JUMPDEST SWAP3 SWAP2 POP POP JUMP JUMPDEST PUSH1 0x0 DUP2 SWAP1 POP SWAP2 SWAP1 POP JUMP JUMPDEST PUSH2 0x400 DUP2 PUSH2 0x3ED JUMP JUMPDEST DUP2 EQ PUSH2 0x40B JUMPI PUSH1 0x0 DUP1 REVERT JUMPDEST POP JUMP JUMPDEST PUSH1 0x0 DUP2 CALLDATALOAD SWAP1 POP PUSH2 0x41D DUP2 PUSH2 0x3F7 JUMP JUMPDEST SWAP3 SWAP2 POP POP JUMP JUMPDEST PUSH1 0x0 DUP2 SWAP1 POP SWAP2 SWAP1 POP JUMP JUMPDEST PUSH2 0x436 DUP2 PUSH2 0x423 JUMP JUMPDEST DUP2 EQ PUSH2 0x441 JUMPI PUSH1 0x0 DUP1 REVERT JUMPDEST POP JUMP JUMPDEST PUSH1 0x0 DUP2 CALLDATALOAD SWAP1 POP PUSH2 0x453 DUP2 PUSH2 0x42D JUMP JUMPDEST SWAP3 SWAP2 POP POP JUMP JUMPDEST PUSH1 0x0 DUP1 PUSH1 0x0 PUSH1 0x60 DUP5 DUP7 SUB SLT ISZERO PUSH2 0x472 JUMPI PUSH2 0x471 PUSH2 0x26F JUMP JUMPDEST JUMPDEST PUSH1 0x0 PUSH2 0x480 DUP7 DUP3 DUP8 ADD PUSH2 0x40E JUMP JUMPDEST SWAP4 POP POP PUSH1 0x20 PUSH2 0x491 DUP7 DUP3 DUP8 ADD PUSH2 0x2BD JUMP JUMPDEST SWAP3 POP POP PUSH1 0x40 PUSH2 0x4A2 DUP7 DUP3 DUP8 ADD PUSH2 0x444 JUMP JUMPDEST SWAP2 POP POP SWAP3 POP SWAP3 POP SWAP3 JUMP JUMPDEST PUSH2 0x4B5 DUP2 PUSH2 0x294 JUMP JUMPDEST DUP3 MSTORE POP POP JUMP JUMPDEST PUSH1 0x0 PUSH1 0x20 DUP3 ADD SWAP1 POP PUSH2 0x4D0 PUSH1 0x0 DUP4 ADD DUP5 PUSH2 0x4AC JUMP JUMPDEST SWAP3 SWAP2 POP POP JUMP JUMPDEST PUSH1 0x0 DUP2 SWAP1 POP SWAP3 SWAP2 POP POP JUMP JUMPDEST PUSH1 0x0 PUSH2 0x4EC DUP3 PUSH2 0x2FF JUMP JUMPDEST PUSH2 0x4F6 DUP2 DUP6 PUSH2 0x4D6 JUMP JUMPDEST SWAP4 POP PUSH2 0x506 DUP2 DUP6 PUSH1 0x20 DUP7 ADD PUSH2 0x31B JUMP JUMPDEST DUP1 DUP5 ADD SWAP2 POP POP SWAP3 SWAP2 POP POP JUMP JUMPDEST PUSH1 0x0 PUSH2 0x51E DUP3 DUP6 PUSH2 0x4E1 JUMP JUMPDEST SWAP2 POP PUSH2 0x52A DUP3 DUP5 PUSH2 0x4E1 JUMP JUMPDEST SWAP2 POP DUP2 SWAP1 POP SWAP4 SWAP3 POP POP POP JUMP JUMPDEST PUSH2 0x53F DUP2 PUSH2 0x423 JUMP JUMPDEST DUP3 MSTORE POP POP JUMP JUMPDEST PUSH1 0x0 PUSH1 0x40 DUP3 ADD SWAP1 POP PUSH2 0x55A PUSH1 0x0 DUP4 ADD DUP6 PUSH2 0x4AC JUMP JUMPDEST PUSH2 0x567 PUSH1 0x20 DUP4 ADD DUP5 PUSH2 0x536 JUMP JUMPDEST SWAP4 SWAP3 POP POP POP JUMP INVALID PUSH1 0x80 PUSH1 0x40 MSTORE CALLVALUE DUP1 ISZERO PUSH2 0x10 JUMPI PUSH1 0x0 DUP1 REVERT JUMPDEST POP PUSH1 0x40 MLOAD PUSH2 0xE0C CODESIZE SUB DUP1 PUSH2 0xE0C DUP4 CODECOPY DUP2 DUP2 ADD PUSH1 0x40 MSTORE DUP2 ADD SWAP1 PUSH2 0x32 SWAP2 SWAP1 PUSH2 0x11C JUMP JUMPDEST CALLER PUSH1 0x0 DUP1 PUSH2 0x100 EXP DUP2 SLOAD DUP2 PUSH20 0xFFFFFFFFFFFFFFFFFFFFFFFFFFFFFFFFFFFFFFFF MUL NOT AND SWAP1 DUP4 PUSH20 0xFFFFFFFFFFFFFFFFFFFFFFFFFFFFFFFFFFFFFFFF AND MUL OR SWAP1 SSTORE POP DUP1 PUSH1 0x1 PUSH1 0x0 PUSH2 0x100 EXP DUP2 SLOAD DUP2 PUSH20 0xFFFFFFFFFFFFFFFFFFFFFFFFFFFFFFFFFFFFFFFF MUL NOT AND SWAP1 DUP4 PUSH20 0xFFFFFFFFFFFFFFFFFFFFFFFFFFFFFFFFFFFFFFFF AND MUL OR SWAP1 SSTORE POP POP PUSH2 0x149 JUMP JUMPDEST PUSH1 0x0 DUP1 REVERT JUMPDEST PUSH1 0x0 PUSH20 0xFFFFFFFFFFFFFFFFFFFFFFFFFFFFFFFFFFFFFFFF DUP3 AND SWAP1 POP SWAP2 SWAP1 POP JUMP JUMPDEST PUSH1 0x0 PUSH2 0xE9 DUP3 PUSH2 0xBE JUMP JUMPDEST SWAP1 POP SWAP2 SWAP1 POP JUMP JUMPDEST PUSH2 0xF9 DUP2 PUSH2 0xDE JUMP JUMPDEST DUP2 EQ PUSH2 0x104 JUMPI PUSH1 0x0 DUP1 REVERT JUMPDEST POP JUMP JUMPDEST PUSH1 0x0 DUP2 MLOAD SWAP1 POP PUSH2 0x116 DUP2 PUSH2 0xF0 JUMP JUMPDEST SWAP3 SWAP2 POP POP JUMP JUMPDEST PUSH1 0x0 PUSH1 0x20 DUP3 DUP5 SUB SLT ISZERO PUSH2 0x132 JUMPI PUSH2 0x131 PUSH2 0xB9 JUMP JUMPDEST JUMPDEST PUSH1 0x0 PUSH2 0x140 DUP5 DUP3 DUP6 ADD PUSH2 0x107 JUMP JUMPDEST SWAP2 POP POP SWAP3 SWAP2 POP POP JUMP JUMPDEST PUSH2 0xCB4 DUP1 PUSH2 0x158 PUSH1 0x0 CODECOPY PUSH1 0x0 RETURN INVALID PUSH1 0x80 PUSH1 0x40 MSTORE PUSH1 0x4 CALLDATASIZE LT PUSH2 0x74 JUMPI PUSH1 0x0 CALLDATALOAD PUSH1 0xE0 SHR DUP1 PUSH4 0x947FE812 GT PUSH2 0x4E JUMPI DUP1 PUSH4 0x947FE812 EQ PUSH2 0xF8 JUMPI DUP1 PUSH4 0x9A8A0592 EQ PUSH2 0x121 JUMPI DUP1 PUSH4 0xCD6DC687 EQ PUSH2 0x14C JUMPI DUP1 PUSH4 0xFC0C546A EQ PUSH2 0x175 JUMPI PUSH2 0x75 JUMP JUMPDEST DUP1 PUSH4 0x2D05D3F EQ PUSH2 0x77 JUMPI DUP1 PUSH4 0x158EF93E EQ PUSH2 0xA2 JUMPI DUP1 PUSH4 0x8DA5CB5B EQ PUSH2 0xCD JUMPI PUSH2 0x75 JUMP JUMPDEST JUMPDEST STOP JUMPDEST CALLVALUE DUP1 ISZERO PUSH2 0x83 JUMPI PUSH1 0x0 DUP1 REVERT JUMPDEST POP PUSH2 0x8C PUSH2 0x1A0 JUMP JUMPDEST PUSH1 0x40 MLOAD PUSH2 0x99 SWAP2 SWAP1 PUSH2 0x534 JUMP JUMPDEST PUSH1 0x40 MLOAD DUP1 SWAP2 SUB SWAP1 RETURN JUMPDEST CALLVALUE DUP1 ISZERO PUSH2 0xAE JUMPI PUSH1 0x0 DUP1 REVERT JUMPDEST POP PUSH2 0xB7 PUSH2 0x1C6 JUMP JUMPDEST PUSH1 0x40 MLOAD PUSH2 0xC4 SWAP2 SWAP1 PUSH2 0x56A JUMP JUMPDEST PUSH1 0x40 MLOAD DUP1 SWAP2 SUB SWAP1 RETURN JUMPDEST CALLVALUE DUP1 ISZERO PUSH2 0xD9 JUMPI PUSH1 0x0 DUP1 REVERT JUMPDEST POP PUSH2 0xE2 PUSH2 0x1D9 JUMP JUMPDEST PUSH1 0x40 MLOAD PUSH2 0xEF SWAP2 SWAP1 PUSH2 0x534 JUMP JUMPDEST PUSH1 0x40 MLOAD DUP1 SWAP2 SUB SWAP1 RETURN JUMPDEST CALLVALUE DUP1 ISZERO PUSH2 0x104 JUMPI PUSH1 0x0 DUP1 REVERT JUMPDEST POP PUSH2 0x11F PUSH1 0x4 DUP1 CALLDATASIZE SUB DUP2 ADD SWAP1 PUSH2 0x11A SWAP2 SWAP1 PUSH2 0x884 JUMP JUMPDEST PUSH2 0x1FD JUMP JUMPDEST STOP JUMPDEST CALLVALUE DUP1 ISZERO PUSH2 0x12D JUMPI PUSH1 0x0 DUP1 REVERT JUMPDEST POP PUSH2 0x136 PUSH2 0x382 JUMP JUMPDEST PUSH1 0x40 MLOAD PUSH2 0x143 SWAP2 SWAP1 PUSH2 0x93F JUMP JUMPDEST PUSH1 0x40 MLOAD DUP1 SWAP2 SUB SWAP1 RETURN JUMPDEST CALLVALUE DUP1 ISZERO PUSH2 0x158 JUMPI PUSH1 0x0 DUP1 REVERT JUMPDEST POP PUSH2 0x173 PUSH1 0x4 DUP1 CALLDATASIZE SUB DUP2 ADD SWAP1 PUSH2 0x16E SWAP2 SWAP1 PUSH2 0x95A JUMP JUMPDEST PUSH2 0x388 JUMP JUMPDEST STOP JUMPDEST CALLVALUE DUP1 ISZERO PUSH2 0x181 JUMPI PUSH1 0x0 DUP1 REVERT JUMPDEST POP PUSH2 0x18A PUSH2 0x4CD JUMP JUMPDEST PUSH1 0x40 MLOAD PUSH2 0x197 SWAP2 SWAP1 PUSH2 0x9A9 JUMP JUMPDEST PUSH1 0x40 MLOAD DUP1 SWAP2 SUB SWAP1 RETURN JUMPDEST PUSH1 0x1 PUSH1 0x0 SWAP1 SLOAD SWAP1 PUSH2 0x100 EXP SWAP1 DIV PUSH20 0xFFFFFFFFFFFFFFFFFFFFFFFFFFFFFFFFFFFFFFFF AND DUP2 JUMP JUMPDEST PUSH1 0x4 PUSH1 0x0 SWAP1 SLOAD SWAP1 PUSH2 0x100 EXP SWAP1 DIV PUSH1 0xFF AND DUP2 JUMP JUMPDEST PUSH1 0x0 DUP1 SLOAD SWAP1 PUSH2 0x100 EXP SWAP1 DIV PUSH20 0xFFFFFFFFFFFFFFFFFFFFFFFFFFFFFFFFFFFFFFFF AND DUP2 JUMP JUMPDEST PUSH1 0x0 JUMPDEST DUP5 MLOAD DUP2 LT ISZERO PUSH2 0x37B JUMPI SELFBALANCE DUP3 DUP3 DUP2 MLOAD DUP2 LT PUSH2 0x21D JUMPI PUSH2 0x21C PUSH2 0x9C4 JUMP JUMPDEST JUMPDEST PUSH1 0x20 MUL PUSH1 0x20 ADD ADD MLOAD GT ISZERO PUSH2 0x266 JUMPI PUSH1 0x40 MLOAD PUSH32 0x8C379A000000000000000000000000000000000000000000000000000000000 DUP2 MSTORE PUSH1 0x4 ADD PUSH2 0x25D SWAP1 PUSH2 0xA50 JUMP JUMPDEST PUSH1 0x40 MLOAD DUP1 SWAP2 SUB SWAP1 REVERT JUMPDEST PUSH1 0x0 DUP6 DUP3 DUP2 MLOAD DUP2 LT PUSH2 0x27B JUMPI PUSH2 0x27A PUSH2 0x9C4 JUMP JUMPDEST JUMPDEST PUSH1 0x20 MUL PUSH1 0x20 ADD ADD MLOAD PUSH20 0xFFFFFFFFFFFFFFFFFFFFFFFFFFFFFFFFFFFFFFFF AND DUP4 DUP4 DUP2 MLOAD DUP2 LT PUSH2 0x2AC JUMPI PUSH2 0x2AB PUSH2 0x9C4 JUMP JUMPDEST JUMPDEST PUSH1 0x20 MUL PUSH1 0x20 ADD ADD MLOAD DUP7 DUP7 DUP6 DUP2 DUP2 LT PUSH2 0x2C7 JUMPI PUSH2 0x2C6 PUSH2 0x9C4 JUMP JUMPDEST JUMPDEST SWAP1 POP PUSH1 0x20 MUL DUP2 ADD SWAP1 PUSH2 0x2D9 SWAP2 SWAP1 PUSH2 0xA7F JUMP JUMPDEST PUSH1 0x40 MLOAD PUSH2 0x2E7 SWAP3 SWAP2 SWAP1 PUSH2 0xB21 JUMP JUMPDEST PUSH1 0x0 PUSH1 0x40 MLOAD DUP1 DUP4 SUB DUP2 DUP6 DUP8 GAS CALL SWAP3 POP POP POP RETURNDATASIZE DUP1 PUSH1 0x0 DUP2 EQ PUSH2 0x324 JUMPI PUSH1 0x40 MLOAD SWAP2 POP PUSH1 0x1F NOT PUSH1 0x3F RETURNDATASIZE ADD AND DUP3 ADD PUSH1 0x40 MSTORE RETURNDATASIZE DUP3 MSTORE RETURNDATASIZE PUSH1 0x0 PUSH1 0x20 DUP5 ADD RETURNDATACOPY PUSH2 0x329 JUMP JUMPDEST PUSH1 0x60 SWAP2 POP JUMPDEST POP POP SWAP1 POP DUP1 PUSH2 0x36D JUMPI PUSH1 0x40 MLOAD PUSH32 0x8C379A000000000000000000000000000000000000000000000000000000000 DUP2 MSTORE PUSH1 0x4 ADD PUSH2 0x364 SWAP1 PUSH2 0xB86 JUMP JUMPDEST PUSH1 0x40 MLOAD DUP1 SWAP2 SUB SWAP1 REVERT JUMPDEST POP DUP1 DUP1 PUSH1 0x1 ADD SWAP2 POP POP PUSH2 0x200 JUMP JUMPDEST POP POP POP POP POP JUMP JUMPDEST PUSH1 0x3 SLOAD DUP2 JUMP JUMPDEST PUSH1 0x0 DUP1 SLOAD SWAP1 PUSH2 0x100 EXP SWAP1 DIV PUSH20 0xFFFFFFFFFFFFFFFFFFFFFFFFFFFFFFFFFFFFFFFF AND PUSH20 0xFFFFFFFFFFFFFFFFFFFFFFFFFFFFFFFFFFFFFFFF AND CALLER PUSH20 0xFFFFFFFFFFFFFFFFFFFFFFFFFFFFFFFFFFFFFFFF AND EQ PUSH2 0x416 JUMPI PUSH1 0x40 MLOAD PUSH32 0x8C379A000000000000000000000000000000000000000000000000000000000 DUP2 MSTORE PUSH1 0x4 ADD PUSH2 0x40D SWAP1 PUSH2 0xBF2 JUMP JUMPDEST PUSH1 0x40 MLOAD DUP1 SWAP2 SUB SWAP1 REVERT JUMPDEST PUSH1 0x4 PUSH1 0x0 SWAP1 SLOAD SWAP1 PUSH2 0x100 EXP SWAP1 DIV PUSH1 0xFF AND ISZERO PUSH2 0x466 JUMPI PUSH1 0x40 MLOAD PUSH32 0x8C379A000000000000000000000000000000000000000000000000000000000 DUP2 MSTORE PUSH1 0x4 ADD PUSH2 0x45D SWAP1 PUSH2 0xC5E JUMP JUMPDEST PUSH1 0x40 MLOAD DUP1 SWAP2 SUB SWAP1 REVERT JUMPDEST DUP2 PUSH1 0x2 PUSH1 0x0 PUSH2 0x100 EXP DUP2 SLOAD DUP2 PUSH20 0xFFFFFFFFFFFFFFFFFFFFFFFFFFFFFFFFFFFFFFFF MUL NOT AND SWAP1 DUP4 PUSH20 0xFFFFFFFFFFFFFFFFFFFFFFFFFFFFFFFFFFFFFFFF AND MUL OR SWAP1 SSTORE POP DUP1 PUSH1 0x3 DUP2 SWAP1 SSTORE POP PUSH1 0x1 PUSH1 0x4 PUSH1 0x0 PUSH2 0x100 EXP DUP2 SLOAD DUP2 PUSH1 0xFF MUL NOT AND SWAP1 DUP4 ISZERO ISZERO MUL OR SWAP1 SSTORE POP POP POP JUMP JUMPDEST PUSH1 0x2 PUSH1 0x0 SWAP1 SLOAD SWAP1 PUSH2 0x100 EXP SWAP1 DIV PUSH20 0xFFFFFFFFFFFFFFFFFFFFFFFFFFFFFFFFFFFFFFFF AND DUP2 JUMP JUMPDEST PUSH1 0x0 PUSH20 0xFFFFFFFFFFFFFFFFFFFFFFFFFFFFFFFFFFFFFFFF DUP3 AND SWAP1 POP SWAP2 SWAP1 POP JUMP JUMPDEST PUSH1 0x0 PUSH2 0x51E DUP3 PUSH2 0x4F3 JUMP JUMPDEST SWAP1 POP SWAP2 SWAP1 POP JUMP JUMPDEST PUSH2 0x52E DUP2 PUSH2 0x513 JUMP JUMPDEST DUP3 MSTORE POP POP JUMP JUMPDEST PUSH1 0x0 PUSH1 0x20 DUP3 ADD SWAP1 POP PUSH2 0x549 PUSH1 0x0 DUP4 ADD DUP5 PUSH2 0x525 JUMP JUMPDEST SWAP3 SWAP2 POP POP JUMP JUMPDEST PUSH1 0x0 DUP2 ISZERO ISZERO SWAP1 POP SWAP2 SWAP1 POP JUMP JUMPDEST PUSH2 0x564 DUP2 PUSH2 0x54F JUMP JUMPDEST DUP3 MSTORE POP POP JUMP JUMPDEST PUSH1 0x0 PUSH1 0x20 DUP3 ADD SWAP1 POP PUSH2 0x57F PUSH1 0x0 DUP4 ADD DUP5 PUSH2 0x55B JUMP JUMPDEST SWAP3 SWAP2 POP POP JUMP JUMPDEST PUSH1 0x0 PUSH1 0x40 MLOAD SWAP1 POP SWAP1 JUMP JUMPDEST PUSH1 0x0 DUP1 REVERT JUMPDEST PUSH1 0x0 DUP1 REVERT JUMPDEST PUSH1 0x0 DUP1 REVERT JUMPDEST PUSH1 0x0 PUSH1 0x1F NOT PUSH1 0x1F DUP4 ADD AND SWAP1 POP SWAP2 SWAP1 POP JUMP JUMPDEST PUSH32 0x4E487B7100000000000000000000000000000000000000000000000000000000 PUSH1 0x0 MSTORE PUSH1 0x41 PUSH1 0x4 MSTORE PUSH1 0x24 PUSH1 0x0 REVERT JUMPDEST PUSH2 0x5E7 DUP3 PUSH2 0x59E JUMP JUMPDEST DUP2 ADD DUP2 DUP2 LT PUSH8 0xFFFFFFFFFFFFFFFF DUP3 GT OR ISZERO PUSH2 0x606 JUMPI PUSH2 0x605 PUSH2 0x5AF JUMP JUMPDEST JUMPDEST DUP1 PUSH1 0x40 MSTORE POP POP POP JUMP JUMPDEST PUSH1 0x0 PUSH2 0x619 PUSH2 0x585 JUMP JUMPDEST SWAP1 POP PUSH2 0x625 DUP3 DUP3 PUSH2 0x5DE JUMP JUMPDEST SWAP2 SWAP1 POP JUMP JUMPDEST PUSH1 0x0 PUSH8 0xFFFFFFFFFFFFFFFF DUP3 GT ISZERO PUSH2 0x645 JUMPI PUSH2 0x644 PUSH2 0x5AF JUMP JUMPDEST JUMPDEST PUSH1 0x20 DUP3 MUL SWAP1 POP PUSH1 0x20 DUP2 ADD SWAP1 POP SWAP2 SWAP1 POP JUMP JUMPDEST PUSH1 0x0 DUP1 REVERT JUMPDEST PUSH1 0x0 PUSH2 0x666 DUP3 PUSH2 0x4F3 JUMP JUMPDEST SWAP1 POP SWAP2 SWAP1 POP JUMP JUMPDEST PUSH2 0x676 DUP2 PUSH2 0x65B JUMP JUMPDEST DUP2 EQ PUSH2 0x681 JUMPI PUSH1 0x0 DUP1 REVERT JUMPDEST POP JUMP JUMPDEST PUSH1 0x0 DUP2 CALLDATALOAD SWAP1 POP PUSH2 0x693 DUP2 PUSH2 0x66D JUMP JUMPDEST SWAP3 SWAP2 POP POP JUMP JUMPDEST PUSH1 0x0 PUSH2 0x6AC PUSH2 0x6A7 DUP5 PUSH2 0x62A JUMP JUMPDEST PUSH2 0x60F JUMP JUMPDEST SWAP1 POP DUP1 DUP4 DUP3 MSTORE PUSH1 0x20 DUP3 ADD SWAP1 POP PUSH1 0x20 DUP5 MUL DUP4 ADD DUP6 DUP2 GT ISZERO PUSH2 0x6CF JUMPI PUSH2 0x6CE PUSH2 0x656 JUMP JUMPDEST JUMPDEST DUP4 JUMPDEST DUP2 DUP2 LT ISZERO PUSH2 0x6F8 JUMPI DUP1 PUSH2 0x6E4 DUP9 DUP3 PUSH2 0x684 JUMP JUMPDEST DUP5 MSTORE PUSH1 0x20 DUP5 ADD SWAP4 POP POP PUSH1 0x20 DUP2 ADD SWAP1 POP PUSH2 0x6D1 JUMP JUMPDEST POP POP POP SWAP4 SWAP3 POP POP POP JUMP JUMPDEST PUSH1 0x0 DUP3 PUSH1 0x1F DUP4 ADD SLT PUSH2 0x717 JUMPI PUSH2 0x716 PUSH2 0x599 JUMP JUMPDEST JUMPDEST DUP2 CALLDATALOAD PUSH2 0x727 DUP5 DUP3 PUSH1 0x20 DUP7 ADD PUSH2 0x699 JUMP JUMPDEST SWAP2 POP POP SWAP3 SWAP2 POP POP JUMP JUMPDEST PUSH1 0x0 DUP1 REVERT JUMPDEST PUSH1 0x0 DUP1 DUP4 PUSH1 0x1F DUP5 ADD SLT PUSH2 0x74B JUMPI PUSH2 0x74A PUSH2 0x599 JUMP JUMPDEST JUMPDEST DUP3 CALLDATALOAD SWAP1 POP PUSH8 0xFFFFFFFFFFFFFFFF DUP2 GT ISZERO PUSH2 0x768 JUMPI PUSH2 0x767 PUSH2 0x730 JUMP JUMPDEST JUMPDEST PUSH1 0x20 DUP4 ADD SWAP2 POP DUP4 PUSH1 0x20 DUP3 MUL DUP4 ADD GT ISZERO PUSH2 0x784 JUMPI PUSH2 0x783 PUSH2 0x656 JUMP JUMPDEST JUMPDEST SWAP3 POP SWAP3 SWAP1 POP JUMP JUMPDEST PUSH1 0x0 PUSH8 0xFFFFFFFFFFFFFFFF DUP3 GT ISZERO PUSH2 0x7A6 JUMPI PUSH2 0x7A5 PUSH2 0x5AF JUMP JUMPDEST JUMPDEST PUSH1 0x20 DUP3 MUL SWAP1 POP PUSH1 0x20 DUP2 ADD SWAP1 POP SWAP2 SWAP1 POP JUMP JUMPDEST PUSH1 0x0 DUP2 SWAP1 POP SWAP2 SWAP1 POP JUMP JUMPDEST PUSH2 0x7CA DUP2 PUSH2 0x7B7 JUMP JUMPDEST DUP2 EQ PUSH2 0x7D5 JUMPI PUSH1 0x0 DUP1 REVERT JUMPDEST POP JUMP JUMPDEST PUSH1 0x0 DUP2 CALLDATALOAD SWAP1 POP PUSH2 0x7E7 DUP2 PUSH2 0x7C1 JUMP JUMPDEST SWAP3 SWAP2 POP POP JUMP JUMPDEST PUSH1 0x0 PUSH2 0x800 PUSH2 0x7FB DUP5 PUSH2 0x78B JUMP JUMPDEST PUSH2 0x60F JUMP JUMPDEST SWAP1 POP DUP1 DUP4 DUP3 MSTORE PUSH1 0x20 DUP3 ADD SWAP1 POP PUSH1 0x20 DUP5 MUL DUP4 ADD DUP6 DUP2 GT ISZERO PUSH2 0x823 JUMPI PUSH2 0x822 PUSH2 0x656 JUMP JUMPDEST JUMPDEST DUP4 JUMPDEST DUP2 DUP2 LT ISZERO PUSH2 0x84C JUMPI DUP1 PUSH2 0x838 DUP9 DUP3 PUSH2 0x7D8 JUMP JUMPDEST DUP5 MSTORE PUSH1 0x20 DUP5 ADD SWAP4 POP POP PUSH1 0x20 DUP2 ADD SWAP1 POP PUSH2 0x825 JUMP JUMPDEST POP POP POP SWAP4 SWAP3 POP POP POP JUMP JUMPDEST PUSH1 0x0 DUP3 PUSH1 0x1F DUP4 ADD SLT PUSH2 0x86B JUMPI PUSH2 0x86A PUSH2 0x599 JUMP JUMPDEST JUMPDEST DUP2 CALLDATALOAD PUSH2 0x87B DUP5 DUP3 PUSH1 0x20 DUP7 ADD PUSH2 0x7ED JUMP JUMPDEST SWAP2 POP POP SWAP3 SWAP2 POP POP JUMP JUMPDEST PUSH1 0x0 DUP1 PUSH1 0x0 DUP1 PUSH1 0x60 DUP6 DUP8 SUB SLT ISZERO PUSH2 0x89E JUMPI PUSH2 0x89D PUSH2 0x58F JUMP JUMPDEST JUMPDEST PUSH1 0x0 DUP6 ADD CALLDATALOAD PUSH8 0xFFFFFFFFFFFFFFFF DUP2 GT ISZERO PUSH2 0x8BC JUMPI PUSH2 0x8BB PUSH2 0x594 JUMP JUMPDEST JUMPDEST PUSH2 0x8C8 DUP8 DUP3 DUP9 ADD PUSH2 0x702 JUMP JUMPDEST SWAP5 POP POP PUSH1 0x20 DUP6 ADD CALLDATALOAD PUSH8 0xFFFFFFFFFFFFFFFF DUP2 GT ISZERO PUSH2 0x8E9 JUMPI PUSH2 0x8E8 PUSH2 0x594 JUMP JUMPDEST JUMPDEST PUSH2 0x8F5 DUP8 DUP3 DUP9 ADD PUSH2 0x735 JUMP JUMPDEST SWAP4 POP SWAP4 POP POP PUSH1 0x40 DUP6 ADD CALLDATALOAD PUSH8 0xFFFFFFFFFFFFFFFF DUP2 GT ISZERO PUSH2 0x918 JUMPI PUSH2 0x917 PUSH2 0x594 JUMP JUMPDEST JUMPDEST PUSH2 0x924 DUP8 DUP3 DUP9 ADD PUSH2 0x856 JUMP JUMPDEST SWAP2 POP POP SWAP3 SWAP6 SWAP2 SWAP5 POP SWAP3 POP JUMP JUMPDEST PUSH2 0x939 DUP2 PUSH2 0x7B7 JUMP JUMPDEST DUP3 MSTORE POP POP JUMP JUMPDEST PUSH1 0x0 PUSH1 0x20 DUP3 ADD SWAP1 POP PUSH2 0x954 PUSH1 0x0 DUP4 ADD DUP5 PUSH2 0x930 JUMP JUMPDEST SWAP3 SWAP2 POP POP JUMP JUMPDEST PUSH1 0x0 DUP1 PUSH1 0x40 DUP4 DUP6 SUB SLT ISZERO PUSH2 0x971 JUMPI PUSH2 0x970 PUSH2 0x58F JUMP JUMPDEST JUMPDEST PUSH1 0x0 PUSH2 0x97F DUP6 DUP3 DUP7 ADD PUSH2 0x684 JUMP JUMPDEST SWAP3 POP POP PUSH1 0x20 PUSH2 0x990 DUP6 DUP3 DUP7 ADD PUSH2 0x7D8 JUMP JUMPDEST SWAP2 POP POP SWAP3 POP SWAP3 SWAP1 POP JUMP JUMPDEST PUSH2 0x9A3 DUP2 PUSH2 0x65B JUMP JUMPDEST DUP3 MSTORE POP POP JUMP JUMPDEST PUSH1 0x0 PUSH1 0x20 DUP3 ADD SWAP1 POP PUSH2 0x9BE PUSH1 0x0 DUP4 ADD DUP5 PUSH2 0x99A JUMP JUMPDEST SWAP3 SWAP2 POP POP JUMP JUMPDEST PUSH32 0x4E487B7100000000000000000000000000000000000000000000000000000000 PUSH1 0x0 MSTORE PUSH1 0x32 PUSH1 0x4 MSTORE PUSH1 0x24 PUSH1 0x0 REVERT JUMPDEST PUSH1 0x0 DUP3 DUP3 MSTORE PUSH1 0x20 DUP3 ADD SWAP1 POP SWAP3 SWAP2 POP POP JUMP JUMPDEST PUSH32 0x4E6F7420656E6F7567682062616C616E63650000000000000000000000000000 PUSH1 0x0 DUP3 ADD MSTORE POP JUMP JUMPDEST PUSH1 0x0 PUSH2 0xA3A PUSH1 0x12 DUP4 PUSH2 0x9F3 JUMP JUMPDEST SWAP2 POP PUSH2 0xA45 DUP3 PUSH2 0xA04 JUMP JUMPDEST PUSH1 0x20 DUP3 ADD SWAP1 POP SWAP2 SWAP1 POP JUMP JUMPDEST PUSH1 0x0 PUSH1 0x20 DUP3 ADD SWAP1 POP DUP2 DUP2 SUB PUSH1 0x0 DUP4 ADD MSTORE PUSH2 0xA69 DUP2 PUSH2 0xA2D JUMP JUMPDEST SWAP1 POP SWAP2 SWAP1 POP JUMP JUMPDEST PUSH1 0x0 DUP1 REVERT JUMPDEST PUSH1 0x0 DUP1 REVERT JUMPDEST PUSH1 0x0 DUP1 REVERT JUMPDEST PUSH1 0x0 DUP1 DUP4 CALLDATALOAD PUSH1 0x1 PUSH1 0x20 SUB DUP5 CALLDATASIZE SUB SUB DUP2 SLT PUSH2 0xA9C JUMPI PUSH2 0xA9B PUSH2 0xA70 JUMP JUMPDEST JUMPDEST DUP1 DUP5 ADD SWAP3 POP DUP3 CALLDATALOAD SWAP2 POP PUSH8 0xFFFFFFFFFFFFFFFF DUP3 GT ISZERO PUSH2 0xABE JUMPI PUSH2 0xABD PUSH2 0xA75 JUMP JUMPDEST JUMPDEST PUSH1 0x20 DUP4 ADD SWAP3 POP PUSH1 0x1 DUP3 MUL CALLDATASIZE SUB DUP4 SGT ISZERO PUSH2 0xADA JUMPI PUSH2 0xAD9 PUSH2 0xA7A JUMP JUMPDEST JUMPDEST POP SWAP3 POP SWAP3 SWAP1 POP JUMP JUMPDEST PUSH1 0x0 DUP2 SWAP1 POP SWAP3 SWAP2 POP POP JUMP JUMPDEST DUP3 DUP2 DUP4 CALLDATACOPY PUSH1 0x0 DUP4 DUP4 ADD MSTORE POP POP POP JUMP JUMPDEST PUSH1 0x0 PUSH2 0xB08 DUP4 DUP6 PUSH2 0xAE2 JUMP JUMPDEST SWAP4 POP PUSH2 0xB15 DUP4 DUP6 DUP5 PUSH2 0xAED JUMP JUMPDEST DUP3 DUP5 ADD SWAP1 POP SWAP4 SWAP3 POP POP POP JUMP JUMPDEST PUSH1 0x0 PUSH2 0xB2E DUP3 DUP5 DUP7 PUSH2 0xAFC JUMP JUMPDEST SWAP2 POP DUP2 SWAP1 POP SWAP4 SWAP3 POP POP POP JUMP JUMPDEST PUSH32 0x4661696C656420746F2065786563757465207377617000000000000000000000 PUSH1 0x0 DUP3 ADD MSTORE POP JUMP JUMPDEST PUSH1 0x0 PUSH2 0xB70 PUSH1 0x16 DUP4 PUSH2 0x9F3 JUMP JUMPDEST SWAP2 POP PUSH2 0xB7B DUP3 PUSH2 0xB3A JUMP JUMPDEST PUSH1 0x20 DUP3 ADD SWAP1 POP SWAP2 SWAP1 POP JUMP JUMPDEST PUSH1 0x0 PUSH1 0x20 DUP3 ADD SWAP1 POP DUP2 DUP2 SUB PUSH1 0x0 DUP4 ADD MSTORE PUSH2 0xB9F DUP2 PUSH2 0xB63 JUMP JUMPDEST SWAP1 POP SWAP2 SWAP1 POP JUMP JUMPDEST PUSH32 0x4E6F7420746865206F776E657200000000000000000000000000000000000000 PUSH1 0x0 DUP3 ADD MSTORE POP JUMP JUMPDEST PUSH1 0x0 PUSH2 0xBDC PUSH1 0xD DUP4 PUSH2 0x9F3 JUMP JUMPDEST SWAP2 POP PUSH2 0xBE7 DUP3 PUSH2 0xBA6 JUMP JUMPDEST PUSH1 0x20 DUP3 ADD SWAP1 POP SWAP2 SWAP1 POP JUMP JUMPDEST PUSH1 0x0 PUSH1 0x20 DUP3 ADD SWAP1 POP DUP2 DUP2 SUB PUSH1 0x0 DUP4 ADD MSTORE PUSH2 0xC0B DUP2 PUSH2 0xBCF JUMP JUMPDEST SWAP1 POP SWAP2 SWAP1 POP JUMP JUMPDEST PUSH32 0x416C726561647920696E697469616C697A656400000000000000000000000000 PUSH1 0x0 DUP3 ADD MSTORE POP JUMP JUMPDEST PUSH1 0x0 PUSH2 0xC48 PUSH1 0x13 DUP4 PUSH2 0x9F3 JUMP JUMPDEST SWAP2 POP PUSH2 0xC53 DUP3 PUSH2 0xC12 JUMP JUMPDEST PUSH1 0x20 DUP3 ADD SWAP1 POP SWAP2 SWAP1 POP JUMP JUMPDEST PUSH1 0x0 PUSH1 0x20 DUP3 ADD SWAP1 POP DUP2 DUP2 SUB PUSH1 0x0 DUP4 ADD MSTORE PUSH2 0xC77 DUP2 PUSH2 0xC3B JUMP JUMPDEST SWAP1 POP SWAP2 SWAP1 POP JUMP INVALID LOG2 PUSH5 0x6970667358 0x22 SLT KECCAK256 TIMESTAMP BLOBHASH 0xD8 DUP13 0xE8 PUSH3 0x6B5C96 DUP12 0xC3 0xAC 0xE0 0xCD MCOPY 0xC9 PUSH32 0x132883C00F18B5E5FBCA4D35D975B364736F6C63430008180033A26469706673 PC 0x22 SLT KECCAK256 PUSH26 0xB238BD0D4849E6347477DE320659758A0D4B05DB6AAC7382D2B5 PUSH13 0x99E4225264736F6C6343000818 STOP CALLER "
        },
        "methodIdentifiers": {
          "deploy(bytes32,address,uint256)": "e6f5e376",
          "getBytecode(address)": "0c6008af",
          "owner()": "8da5cb5b"
        }
      }
    }
  }
}