{
  "_format": "hh-sol-artifact-1",
  "contractName": "AssetReceiverFactory",
  "sourceName": "contracts/AssetReceiverFactory.sol",
  "abi": [
    {
      "inputs": [],
      "stateMutability": "nonpayable",
      "type": "constructor"
    },
    {
      "anonymous": false,
      "inputs": [
        {
          "indexed": true,
          "internalType": "address",
          "name": "assetReceiverAddress",
          "type": "address"
        },
        {
          "indexed": true,
          "internalType": "address",
          "name": "owner",
          "type": "address"
        },
        {
          "indexed": false,
          "internalType": "address",
          "name": "token",
          "type": "address"
        },
        {
          "indexed": false,
          "internalType": "uint256",
          "name": "chainId",
          "type": "uint256"
        }
      ],
      "name": "AssetReceiverDeployed",
      "type": "event"
    },
    {
      "inputs": [
        {
          "internalType": "bytes32",
          "name": "_salt",
          "type": "bytes32"
        },
        {
          "internalType": "address",
          "name": "token",
          "type": "address"
        },
        {
          "internalType": "uint256",
          "name": "chainId",
          "type": "uint256"
        }
      ],
      "name": "deploy",
      "outputs": [
        {
          "internalType": "address",
          "name": "",
          "type": "address"
        }
      ],
      "stateMutability": "nonpayable",
      "type": "function"
    },
    {
      "inputs": [],
      "name": "owner",
      "outputs": [
        {
          "internalType": "address payable",
          "name": "",
          "type": "address"
        }
      ],
      "stateMutability": "view",
      "type": "function"
    }
  ],
  "bytecode": "0x608060405234801561001057600080fd5b50336000806101000a81548173ffffffffffffffffffffffffffffffffffffffff021916908373ffffffffffffffffffffffffffffffffffffffff160217905550610f2d806100606000396000f3fe608060405234801561001057600080fd5b50600436106100365760003560e01c80638da5cb5b1461003b578063e6f5e37614610059575b600080fd5b610043610089565b60405161005091906101af565b60405180910390f35b610073600480360381019061006e9190610279565b6100ad565b60405161008091906102db565b60405180910390f35b60008054906101000a900473ffffffffffffffffffffffffffffffffffffffff1681565b600080843385856040516100c090610161565b6100cc93929190610305565b8190604051809103906000f59050801580156100ec573d6000803e3d6000fd5b5090503373ffffffffffffffffffffffffffffffffffffffff168173ffffffffffffffffffffffffffffffffffffffff167f6f5c3fd72a76cee4eae5b19c7d170e5ffb7f132ef0f26296a1f46ec2bb3faaf2868660405161014e92919061033c565b60405180910390a3809150509392505050565b610b928061036683390190565b600073ffffffffffffffffffffffffffffffffffffffff82169050919050565b60006101998261016e565b9050919050565b6101a98161018e565b82525050565b60006020820190506101c460008301846101a0565b92915050565b600080fd5b6000819050919050565b6101e2816101cf565b81146101ed57600080fd5b50565b6000813590506101ff816101d9565b92915050565b60006102108261016e565b9050919050565b61022081610205565b811461022b57600080fd5b50565b60008135905061023d81610217565b92915050565b6000819050919050565b61025681610243565b811461026157600080fd5b50565b6000813590506102738161024d565b92915050565b600080600060608486031215610292576102916101ca565b5b60006102a0868287016101f0565b93505060206102b18682870161022e565b92505060406102c286828701610264565b9150509250925092565b6102d581610205565b82525050565b60006020820190506102f060008301846102cc565b92915050565b6102ff81610243565b82525050565b600060608201905061031a60008301866102cc565b61032760208301856102cc565b61033460408301846102f6565b949350505050565b600060408201905061035160008301856102cc565b61035e60208301846102f6565b939250505056fe608060405234801561001057600080fd5b50604051610b92380380610b928339818101604052810190610032919061019c565b336000806101000a81548173ffffffffffffffffffffffffffffffffffffffff021916908373ffffffffffffffffffffffffffffffffffffffff16021790555082600160006101000a81548173ffffffffffffffffffffffffffffffffffffffff021916908373ffffffffffffffffffffffffffffffffffffffff16021790555081600260006101000a81548173ffffffffffffffffffffffffffffffffffffffff021916908373ffffffffffffffffffffffffffffffffffffffff160217905550806003819055505050506101ef565b600080fd5b600073ffffffffffffffffffffffffffffffffffffffff82169050919050565b600061013382610108565b9050919050565b61014381610128565b811461014e57600080fd5b50565b6000815190506101608161013a565b92915050565b6000819050919050565b61017981610166565b811461018457600080fd5b50565b60008151905061019681610170565b92915050565b6000806000606084860312156101b5576101b4610103565b5b60006101c386828701610151565b93505060206101d486828701610151565b92505060406101e586828701610187565b9150509250925092565b610994806101fe6000396000f3fe60806040526004361061004e5760003560e01c806302d05d3f146100515780638da5cb5b1461007c578063947fe812146100a75780639a8a0592146100d0578063fc0c546a146100fb5761004f565b5b005b34801561005d57600080fd5b50610066610126565b6040516100739190610362565b60405180910390f35b34801561008857600080fd5b5061009161014c565b60405161009e9190610362565b60405180910390f35b3480156100b357600080fd5b506100ce60048036038101906100c9919061067c565b610170565b005b3480156100dc57600080fd5b506100e56102f5565b6040516100f29190610737565b60405180910390f35b34801561010757600080fd5b506101106102fb565b60405161011d9190610761565b60405180910390f35b600160009054906101000a900473ffffffffffffffffffffffffffffffffffffffff1681565b60008054906101000a900473ffffffffffffffffffffffffffffffffffffffff1681565b60005b84518110156102ee57478282815181106101905761018f61077c565b5b602002602001015111156101d9576040517f08c379a00000000000000000000000000000000000000000000000000000000081526004016101d090610808565b60405180910390fd5b60008582815181106101ee576101ed61077c565b5b602002602001015173ffffffffffffffffffffffffffffffffffffffff1683838151811061021f5761021e61077c565b5b602002602001015186868581811061023a5761023961077c565b5b905060200281019061024c9190610837565b60405161025a9291906108d9565b60006040518083038185875af1925050503d8060008114610297576040519150601f19603f3d011682016040523d82523d6000602084013e61029c565b606091505b50509050806102e0576040517f08c379a00000000000000000000000000000000000000000000000000000000081526004016102d79061093e565b60405180910390fd5b508080600101915050610173565b5050505050565b60035481565b600260009054906101000a900473ffffffffffffffffffffffffffffffffffffffff1681565b600073ffffffffffffffffffffffffffffffffffffffff82169050919050565b600061034c82610321565b9050919050565b61035c81610341565b82525050565b60006020820190506103776000830184610353565b92915050565b6000604051905090565b600080fd5b600080fd5b600080fd5b6000601f19601f8301169050919050565b7f4e487b7100000000000000000000000000000000000000000000000000000000600052604160045260246000fd5b6103df82610396565b810181811067ffffffffffffffff821117156103fe576103fd6103a7565b5b80604052505050565b600061041161037d565b905061041d82826103d6565b919050565b600067ffffffffffffffff82111561043d5761043c6103a7565b5b602082029050602081019050919050565b600080fd5b600061045e82610321565b9050919050565b61046e81610453565b811461047957600080fd5b50565b60008135905061048b81610465565b92915050565b60006104a461049f84610422565b610407565b905080838252602082019050602084028301858111156104c7576104c661044e565b5b835b818110156104f057806104dc888261047c565b8452602084019350506020810190506104c9565b5050509392505050565b600082601f83011261050f5761050e610391565b5b813561051f848260208601610491565b91505092915050565b600080fd5b60008083601f84011261054357610542610391565b5b8235905067ffffffffffffffff8111156105605761055f610528565b5b60208301915083602082028301111561057c5761057b61044e565b5b9250929050565b600067ffffffffffffffff82111561059e5761059d6103a7565b5b602082029050602081019050919050565b6000819050919050565b6105c2816105af565b81146105cd57600080fd5b50565b6000813590506105df816105b9565b92915050565b60006105f86105f384610583565b610407565b9050808382526020820190506020840283018581111561061b5761061a61044e565b5b835b81811015610644578061063088826105d0565b84526020840193505060208101905061061d565b5050509392505050565b600082601f83011261066357610662610391565b5b81356106738482602086016105e5565b91505092915050565b6000806000806060858703121561069657610695610387565b5b600085013567ffffffffffffffff8111156106b4576106b361038c565b5b6106c0878288016104fa565b945050602085013567ffffffffffffffff8111156106e1576106e061038c565b5b6106ed8782880161052d565b9350935050604085013567ffffffffffffffff8111156107105761070f61038c565b5b61071c8782880161064e565b91505092959194509250565b610731816105af565b82525050565b600060208201905061074c6000830184610728565b92915050565b61075b81610453565b82525050565b60006020820190506107766000830184610752565b92915050565b7f4e487b7100000000000000000000000000000000000000000000000000000000600052603260045260246000fd5b600082825260208201905092915050565b7f4e6f7420656e6f7567682062616c616e63650000000000000000000000000000600082015250565b60006107f26012836107ab565b91506107fd826107bc565b602082019050919050565b60006020820190508181036000830152610821816107e5565b9050919050565b600080fd5b600080fd5b600080fd5b6000808335600160200384360303811261085457610853610828565b5b80840192508235915067ffffffffffffffff8211156108765761087561082d565b5b60208301925060018202360383131561089257610891610832565b5b509250929050565b600081905092915050565b82818337600083830152505050565b60006108c0838561089a565b93506108cd8385846108a5565b82840190509392505050565b60006108e68284866108b4565b91508190509392505050565b7f4661696c656420746f2065786563757465207377617000000000000000000000600082015250565b60006109286016836107ab565b9150610933826108f2565b602082019050919050565b600060208201905081810360008301526109578161091b565b905091905056fea26469706673582212208fc93b64ebef2af78031cbf7c93cd6b9777bca74e1a7a9a4598bdd8e8d2d1e5464736f6c63430008180033a2646970667358221220b734593bc3114e0f0b9b10f6a6ee66af46f198d97a885c733c0884094cee620c64736f6c63430008180033",
  "linkReferences": {},
  "deployedLinkReferences": {}
}